{
  "contractName": "Interact",
  "abi": [
    {
      "anonymous": false,
      "inputs": [
        {
          "indexed": false,
          "internalType": "address",
          "name": "vendor",
          "type": "address"
        },
        {
          "indexed": false,
          "internalType": "address",
          "name": "customer",
          "type": "address"
        }
      ],
      "name": "txCompleted",
      "type": "event"
    },
    {
      "inputs": [
        {
          "internalType": "address",
          "name": "",
          "type": "address"
        }
      ],
      "name": "pendingWithdrawals",
      "outputs": [
        {
          "internalType": "uint256",
          "name": "",
          "type": "uint256"
        }
      ],
      "stateMutability": "view",
      "type": "function"
    },
    {
      "inputs": [
        {
          "internalType": "address",
          "name": "vendorAddress",
          "type": "address"
        }
      ],
      "name": "pay",
      "outputs": [],
      "stateMutability": "payable",
      "type": "function"
    },
    {
      "inputs": [],
      "name": "withdraw",
      "outputs": [],
      "stateMutability": "nonpayable",
      "type": "function"
    }
  ],
  "bytecode": "0x608060405234801561001057600080fd5b5061059f806100206000396000f3fe6080604052600436106100345760003560e01c80630c11dedd146100395780633ccfd60b1461007d578063f3f4370314610094575b600080fd5b61007b6004803603602081101561004f57600080fd5b81019080803573ffffffffffffffffffffffffffffffffffffffff1690602001909291905050506100f9565b005b34801561008957600080fd5b50610092610318565b005b3480156100a057600080fd5b506100e3600480360360208110156100b757600080fd5b81019080803573ffffffffffffffffffffffffffffffffffffffff169060200190929190505050610480565b6040518082815260200191505060405180910390f35b60003411610152576040517f08c379a00000000000000000000000000000000000000000000000000000000081526004018080602001828103825260248152602001806105216024913960400191505060405180910390fd5b8073ffffffffffffffffffffffffffffffffffffffff163373ffffffffffffffffffffffffffffffffffffffff1614156101f4576040517f08c379a000000000000000000000000000000000000000000000000000000000815260040180806020018281038252601b8152602001807f496e636f727265637420616464726573732070617373656420696e000000000081525060200191505060405180910390fd5b61023c6000808373ffffffffffffffffffffffffffffffffffffffff1673ffffffffffffffffffffffffffffffffffffffff1681526020019081526020016000205434610498565b6000808373ffffffffffffffffffffffffffffffffffffffff1673ffffffffffffffffffffffffffffffffffffffff168152602001908152602001600020819055507f7936362e14831b6d444740fde3ddbb9e1a761ec52d656420aced89ee432a1cea8133604051808373ffffffffffffffffffffffffffffffffffffffff1673ffffffffffffffffffffffffffffffffffffffff1681526020018273ffffffffffffffffffffffffffffffffffffffff1673ffffffffffffffffffffffffffffffffffffffff1681526020019250505060405180910390a150565b60008060003373ffffffffffffffffffffffffffffffffffffffff1673ffffffffffffffffffffffffffffffffffffffff16815260200190815260200160002054116103af576040517f08c379a00000000000000000000000000000000000000000000000000000000081526004018080602001828103825260258152602001806105456025913960400191505060405180910390fd5b60008060003373ffffffffffffffffffffffffffffffffffffffff1673ffffffffffffffffffffffffffffffffffffffff16815260200190815260200160002054905060008060003373ffffffffffffffffffffffffffffffffffffffff1673ffffffffffffffffffffffffffffffffffffffff168152602001908152602001600020819055503373ffffffffffffffffffffffffffffffffffffffff166108fc829081150290604051600060405180830381858888f1935050505015801561047c573d6000803e3d6000fd5b5050565b60006020528060005260406000206000915090505481565b600080828401905083811015610516576040517f08c379a000000000000000000000000000000000000000000000000000000000815260040180806020018281038252601b8152602001807f536166654d6174683a206164646974696f6e206f766572666c6f77000000000081525060200191505060405180910390fd5b809150509291505056fe5468652076616c756520697320726571756972656420746f20626520706f736974697665506f7369746976652062616c616e636520726571756972656420746f207769746864726177a2646970667358221220019310a3f50f7c6dc238e5b35c2c41726f4a19c969ca4eb49b759ecd7f623f3464736f6c63430006080033",
  "immutableReferences": {},
  "source": "// SPDX-License-Identifier: UNLICENSED\npragma solidity >=0.4.21 <0.7.0;\n\nimport \"../node_modules/@openzeppelin/contracts/math/SafeMath.sol\";\n\ncontract Interact {\n    mapping(address => uint256) public pendingWithdrawals;\n    event txCompleted(address vendor, address customer);\n\n    // Add money to a vendor's mapping\n    function pay(address vendorAddress) public payable {\n        require(msg.value > 0, \"The value is required to be positive\");\n        require(msg.sender != vendorAddress, \"Incorrect address passed in\");\n        // avoid overflow\n        pendingWithdrawals[vendorAddress] = SafeMath.add(\n            pendingWithdrawals[vendorAddress],\n            msg.value\n        );\n        emit txCompleted(vendorAddress, msg.sender);\n    }\n\n    // Withdraw all money from mapping\n    function withdraw() public {\n        require(\n            pendingWithdrawals[msg.sender] > 0,\n            \"Positive balance required to withdraw\"\n        );\n        uint256 amount = pendingWithdrawals[msg.sender];\n        // prevent re-entrancy attacks\n        pendingWithdrawals[msg.sender] = 0;\n        msg.sender.transfer(amount);\n    }\n}\n",
  "sourcePath": "/Users/coltoncampbell/Documents/GitHub/eth_pos/contracts/Interact.sol",
  "compiler": {
    "name": "solc",
    "version": "0.6.8+commit.0bbfe453.Emscripten.clang"
  },
  "schemaVersion": "3.2.0",
  "updatedAt": "2020-07-01T01:19:34.864Z",
  "devdoc": {
    "methods": {}
  },
  "userdoc": {
    "methods": {}
  }
}